:100000000C94F4010C941C020C941C020C941C0221
:100010000C941C020C941C020C941C020C941C02E8
:100020000C941C020C941C020C941C020C941C02D8
:100030000C941C020C941C020C941C020C941C02C8
:100040000C943F290C941C020C940D290C94E72865
:100050000C941C020C941C020C941C020C941C02A8
:100060000C941C020C941C0200407A10F35A00A05D
:10007000724E18090010A5D4E80000E87648170071
:1000800000E40B54020000CA9A3B000000E1F505B1
:10009000000080969800000040420F000000A086FB
:1000A00001000000102700000000E803000000002D
:1000B0006400000000000A000000000001000000D1
:1000C00000002C76D888DC674F0823DFC1DFAE59EB
:1000D000E1B1B796E5E3E453C63AE651997696E87E
:1000E000E6C28426EB898C9B62ED407C6FFCEFBC02
:1000F0009C9F40F2BAA56FA5F490055A2AF75C932D
:100100006B6CF9676DC11BFCE0E40D47FEF520E662
:10011000B500D0ED902E0300943577050080841E45
:10012000080000204E0A000000C80C333333330FA0
:10013000986E12831141EF8D2114893BE65516CF3D
:10014000FEE6DB18D1844B381BF77C1D901DA4BB49
:10015000E424203284725E228100C9F124ECA1E5FE
:100160003D2700000000240027002A0000000000B6
:10017000250028002B00746869732077696C6C2057
:100180007475726E204F4E2070696E2034002F34CB
:100190002F3F733D31002F00687474703A2F2F0089
:1001A000636F7079202620706173746520746865B0
:1001B0002075726C20696E207468652062726F779A
:1001C00073657220746F20746573740073202873D4
:1001D0007461746529203D206F6E283129206F726B
:1001E000206F666628302920616E642070202862A6
:1001F0006F6172642070696E206E756D6265722920
:10020000007365742070696E207374617465002AD0
:100210002A2A2A2A2A2A2A2A2A2A2A2A2A2A2A2A3E
:100220002A2A2A2A2A2A2A2A2A2A2A2A2A2A002F53
:10023000342F3F6765745F76616C002F00687474BB
:10024000703A2F2F00636F707920262070617374CD
:1002500065207468652075726C20696E207468650D
:100260002062726F7773657220746F207465737487
:10027000006765742070696E20342076616C756546
:10028000002A2A2A2A2A2A2A2A2A2A2A2A2A2A2AF8
:100290002A2A2A2A2A2A2A2A2A2A2A2A2A2A2A2ABE
:1002A00000626F6172645F70696E733A006D6F6EA9
:1002B00069746F725F747970653A206172647569F0
:1002C0006E6F2E65746865726E6574006D6F6E6911
:1002D000746F725F6D61635F616464726573733ABA
:1002E00020006D6F6E69746F725F69705F61646426
:1002F000726573733A20006D6F6E69746F725F7010
:10030000617373636F64653A200073656E736F7217
:1003100020747970653A200000656D61696C3A203F
:10032000726676696C6C61636163616E4079616865
:100330006F6F2E636F6D0070726F6772616D6D65A8
:10034000723A20726F6C6C792066616C636F2076F4
:10035000696C6C61636163616E0076657273696F6D
:100360006E3A2076312E32207C206C6173742075B9
:100370007064617465643A204465637C33317C3217
:10038000303232006669726D77617265206E616D20
:10039000653A206261676F6F6E672B2B000000006B
:1003A00000230026002900040404040404040402B9
:1003B0000202020202030303030303010204081002
:1003C00020408001020408102001020408102000CF
:1003D0000000080002010000030407000000000004
:1003E000000000008929B22F11241FBECFEFD8E0F2
:1003F000DEBFCDBF14E0A0E0B1E0EAE9F4E702C05F
:1004000005900D92A639B107D9F726E0A6E9B4E028
:1004100001C01D92A334B207E1F711E0C3EFD1E0B0
:1004200004C02197FE010E947935C23FD107C9F768
:100430000E94362A0C94403A0C9400008CBD9DBD5D
:10044000089520E3FC0120833296862F82958F70D9
:100450006F706A3030F4605D6293682F8111F5CF60
:100460000895695CF9CFFC01818D928D08950895FE
:10047000FC01248135816217730720F4808191810A
:10048000009729F41092AC048CEA94E00895860F4A
:10049000971F08950895DB0114964D915C9115976F
:1004A0006D917C91DC01ED91FC910280F381E02D56
:1004B0000994AF92BF92CF92DF92EF92FF920F9387
:1004C0001F93CF93DF936C017B018B01040F151FEA
:1004D000EB015E01AE18BF08C017D10759F0699152
:1004E000D601ED91FC910190F081E02DC6010995B6
:1004F000892B79F7C501DF91CF911F910F91FF9063
:10050000EF90DF90CF90BF90AF900895FC01538D96
:10051000448D252F30E0842F90E0821B930B5417DD
:1005200010F0CF96089501970895FC01918D828D6A
:10053000981761F0A28DAE0FBF2FB11D5D968C9103
:10054000928D9F5F9F73928F90E008958FEF9FEF42
:100550000895FC01918D828D981731F0828DE80FFE
:10056000F11D858D90E008958FEF9FEF0895FC01B8
:10057000918D228D892F90E0805C9F4F821B910985
:100580008F73992708958BE395E00E94B70221E0CD
:10059000892B09F420E0822F089580E090E0892BD8
:1005A00029F00E94C30281110C9400000895FC01FF
:1005B000A48DA80FB92FB11DA35ABF4F2C91848DC4
:1005C00090E001968F739927848FA689B7892C9321
:1005D000A089B1898C91837080648C93938D848D74
:1005E000981306C00288F389E02D80818F7D808377
:1005F0000895EF92FF920F931F93CF93DF93EC0137
:1006000081E0888F9B8D8C8D98131AC0E889F989B9
:10061000808185FF15C09FB7F894EE89FF896083BC
:10062000E889F98980818370806480839FBF81E03D
:1006300090E0DF91CF911F910F91FF90EF9008957F
:10064000F62E0B8D10E00F5F1F4F0F731127E02E5A
:100650008C8D8E110CC00FB607FCFACFE889F98992
:10066000808185FFF5CFCE010E94D702F1CFEB8DBF
:10067000EC0FFD2FF11DE35AFF4FF0829FB7F89466
:100680000B8FEA89FB8980818062CFCF0F931F9304
:10069000CF93DF938C01D0E0C0E0F801EC0FFD1F99
:1006A0006491662341F08BE395E00E94F902892B67
:1006B00011F02196F2CFCE01DF91CF911F910F91D2
:1006C0000895CF93DF93EC01888D8823B9F0AA8930
:1006D000BB89E889F9898C9185FD03C0808186FDFD
:1006E0000DC00FB607FCF7CF8C9185FFF2CF80814C
:1006F00085FFEDCFCE010E94D702E9CFDF91CF91E8
:100700000895833081F028F4813099F08230A9F087
:1007100008958730A9F08830C9F08430B1F4809111
:1007200080008F7D03C0809180008F778093800050
:10073000089584B58F7784BD089584B58F7DFBCFF0
:100740008091B0008F778093B00008958091B000C1
:100750008F7DF9CF1F93CF93DF93282F30E0F901DE
:10076000E153FC4F8491F901E554FC4FD491F90118
:10077000E955FC4FC491CC23A9F0162F81110E949A
:100780008103EC2FF0E0EE0FFF1FE459FE4FA5911F
:10079000B4918FB7F894EC91111108C0D095DE2375
:1007A000DC938FBFDF91CF911F910895DE2BF8CF9F
:1007B000CF93DF9390E0FC01E554FC4F24918955E1
:1007C0009C4FFC0184918823D1F090E0880F991F01
:1007D000FC01EE59FE4FA591B491FC01E459FE4F86
:1007E000C591D491623071F49FB7F8943C91822FF7
:1007F000809583238C93E8812E2B28839FBFDF91E4
:10080000CF9108958FB7F894EC912E2B2C938FBF36
:10081000F6CF3FB7F8948091A8049091A904A091D5
:10082000AA04B091AB0426B5A89B05C02F3F19F0D0
:100830000196A11DB11D3FBFBA2FA92F982F882760
:10084000BC01CD01620F711D811D911D42E0660F3B
:10085000771F881F991F4A95D1F708952F923F92CD
:100860004F925F926F927F928F929F92AF92BF92C0
:10087000CF92DF92EF92FF920F931F93CF93DF936C
:10088000C82F062F49015A010E9409046B017C01FF
:10089000D0E0CE0181539C4F2C01FE01E554FC4F6A
:1008A0003F01C955DC4F10E0F2018491F30134900F
:1008B000FE012490222029F181110E948103E22D62
:1008C000F0E0EE0FFF1FE356FC4FA591B4918C9121
:1008D000382231E020E009F430E0832F922F08170E
:1008E000190791F40E9409046C197D098E099F096A
:1008F00086169706A806B906B8F660E070E0CB0148
:1009000009C090E080E0EBCF0E9409046C197D09DA
:100910008E099F09DF91CF911F910F91FF90EF906A
:10092000DF90CF90BF90AF909F908F907F906F900F
:100930005F904F903F902F9008958F929F92AF922B
:10094000BF92CF92DF92EF92FF924B015C010E9427
:1009500009046B017C010E9409046C197D098E0950
:100960009F09683E734081059105A8F321E0821A32
:100970009108A108B10888EEC80E83E0D81EE11CDA
:10098000F11C81149104A104B10429F7FF90EF90A8
:10099000DF90CF90BF90AF909F908F9008952FB72A
:1009A000F8946091A4047091A5048091A60490919C
:1009B000A7042FBF0895FC0120812EBD9B0121506B
:1009C000310941F051810DB407FEFDCF4EB55EBD3A
:1009D0004193F5CF61507109860F971F0DB407FE43
:1009E000FDCF2EB5FC0120830895E0919F04F09186
:1009F000A004808190919E04892B80830895E091CA
:100A00009F04F091A004908180919E048095892399
:100A1000808308958EBD00000DB407FEFDCF8EB516
:100A20000895AF92BF92CF92DF92EF92FF920F9311
:100A30001F93CF93DF93CDB7DEB728970FB6F89407
:100A4000DEBF0FBECDBF8C017B016A0180913A05EC
:100A50008333E1F45801A40EB51EA016B10609F4C3
:100A60006FC00E94FF0480EF0E940A05812F0E9440
:100A70000A05802F0E940A050F5F1F4FF701819121
:100A80007F010E940A050E94F504E7CF5B01A40ED6
:100A9000B51E8433C1F40E94FF0419830A838D2D8F
:100AA00080688B83CC8264E070E0CE0101960E9466
:100AB000DB04AE14BF0409F441C0F70181917F014A
:100AC0000E940A05F6CF0E94FF040F3F110509F0AE
:100AD00028F419820A8384E08B830CC017FD17C0A9
:100AE00019820A8333E0169507953A95E1F7007E5F
:100AF0000C600B8386E0C816D104A0F5F701DE0177
:100B00001496EA15FB0599F081918D93FACFC801EF
:100B100026E0969587952A95E1F7807E19830A83CA
:100B20000115104C10F48461D7CF8C61D5CFB6017C
:100B30006D5F7F4FCE0101960E94DB040E94F50499
:100B4000C60128960FB6F894DEBF0FBECDBFDF9169
:100B5000CF911F910F91FF90EF90DF90CF90BF90BA
:100B6000AF90089563E070E0CE0101960E94DB042F
:100B7000F70181917F010E940A05AE14BF04C1F7FD
:100B8000DDCFCF93DF931F92CDB7DEB7898341E0EE
:100B900050E0BE016F5F7F4F90E080E00E94110542
:100BA0000F90DF91CF91089590E020913A05233383
:100BB00039F40C96982F990F990F990F80E00895AA
:100BC0004896F8CFDA01E091A204F0E0FE2FEE277C
:100BD000E60FF71F90E0982F8827A901BD018E0F1F
:100BE0009F1F0C941105CF93DF9300D0CDB7DEB7D4
:100BF00079836A8322E030E0AE014F5F5F4F60E1AE
:100C000070E00E94E2050F900F90DF91CF91089560
:100C1000CF93DF9300D0CDB7DEB779836A8322E02C
:100C200030E0AE014F5F5F4F64E070E00E94E2058C
:100C30000F900F90DF91CF910895CF93DF931F9284
:100C4000CDB7DEB72091A20430E0322F2227260F45
:100C5000371F90E0982F8827498341E050E0BE017C
:100C60006F5F7F4F820F931F0E9411050F90DF91DE
:100C7000CF910895CF93DF931F92CDB7DEB76983ED
:100C8000DC01ED91FC910280F381E02D41E050E028
:100C9000BE016F5F7F4F09950F90DF91CF9108954F
:100CA000CF93DF931F92CDB7DEB76983DC01ED915F
:100CB000FC910280F381E02D41E050E0BE016F5FC6
:100CC0007F4F09950F90DF91CF910895FC01948596
:100CD000FB018485981303C081E0943008F080E024
:100CE0000895CF93DF931F92CDB7DEB76983DC0100
:100CF000ED91FC910280F381E02D41E050E0BE01D6
:100D00006F5F7F4F09950F90DF91CF910895FC01A0
:100D1000768765870895DC01ED91FC91068CF78D4F
:100D2000E02D099591E089270895862F089581E0A7
:100D30008627089521E0FC018485843008F020E0B6
:100D4000822F08950895FF920F931F93CF93DF93FF
:100D5000EB01FC01178A168A2A81211109C02B8117
:100D6000211106C02C81211103C02D81222301F104
:100D700041155105E9F08A01FC01F08C80E591E014
:100D80000E941E02AE014E5F5F4F24E030E06CE037
:100D900070E08F2D0E94E205B8018F2D0E94F305AF
:100DA00081E090E0DF91CF911F910F91FF90089526
:100DB00080E0F7CFFC01848595850895FC01848946
:100DC000958908952BE831E0FC0131832083FB01F4
:100DD0004089518962897389FC014283538364830A
:100DE00075830895DC01ED91FC91048CF58DE02D67
:100DF000099490E080E00895EF92FF920F931F9383
:100E0000CF93DF937C01FC0104811581602F90E07A
:100E100080E00E94EB33D0E0C0E01127C017D1077B
:100E2000ACF4F70184819581C817D90768F48081F3
:100E30009181009749F08C0F9D1FFC0160812196E4
:100E4000CE010E94EB33EACF60E0F9CFDF91CF9182
:100E50001F910F91FF90EF900895FB0101900020EA
:100E6000E9F73197AF01461B570BDC01ED91FC917F
:100E70000280F381E02D09948F929F92AF92BF92EE
:100E8000EF92FF920F931F93CF93DF93CDB7DEB70F
:100E9000A1970FB6F894DEBF0FBECDBF7C01FA015B
:100EA000CB0119A2223008F42AE08E010F5D1F4FFA
:100EB000822E912CB12CA12CBF01A50194010E947E
:100EC0006234F901CA016A300CF5605DD8016E9395
:100ED0008D01232B242B252B79F790E080E01097B0
:100EE00021F0BD01C7010E942D07A1960FB6F8940D
:100EF000DEBF0FBECDBFDF91CF911F910F91FF904D
:100F0000EF90BF90AF909F908F900895695CDECF77
:100F10008F929F92AF92BF92CF92DF92EF92FF9209
:100F20000F931F93CF93DF937C01EB016C0182E061
:100F3000C80ED11C4701E5E08E0E911C10E000E0C8
:100F4000F60141916F0150E070E060E02AE0CE01CF
:100F50000E943C075C01E881F9810190F081E02D5D
:100F60006EE2CE0109958A0D9B1D080F191FC8144A
:100F7000D90431F7F701458150E070E060E02AE0E4
:100F8000CE010E943C07800F911FDF91CF911F91EE
:100F90000F91FF90EF90DF90CF90BF90AF909F9018
:100FA0008F9008956DE971E00C942D07CF93DF9336
:100FB0000E944603EC018BE395E00E94D2078C0F60
:100FC0009D1FDF91CF9108950F931F93CF93DF93D0
:100FD000EC010E942D078C01CE010E94D207800FE8
:100FE000911FDF91CF911F910F9108950F931F9340
:100FF000CF93DF93EC010E944B028C01CE010E9443
:10100000D207800F911FDF91CF911F910F9108950B
:10101000AF92BF92CF92DF92EF92FF920F931F9306
:10102000CF93DF9300D000D0CDB7DEB78C016B013A
:101030007A0180913A058333E9F45B016801C40EBB
:10104000D51EC016D106A9F10E94FF048FE00E94B0
:101050000A05812F0E940A05802F0E940A050F5F52
:101060001F4F80E00E940A05F50181935F010E94F5
:10107000F504E7CF843369F50E94FF0419830A83DE
:101080008F2D8F778B83EC8264E070E0CE01019628
:101090000E94DB04A70170E060E0C6010E94773780
:1010A000E114F10421F0B701C6010E94DB040E94A3
:1010B000F504C7010F900F900F900F90DF91CF9123
:1010C0001F910F91FF90EF90DF90CF90BF90AF9066
:1010D00008950E94FF040F3F110509F030F41982B2
:1010E0000A831B8263E070E0D1CF17FD0BC0198229
:1010F0000A8333E0169507953A95E1F7007E08607C
:101100000B83F0CFC80126E0969587952A95E1F7E5
:10111000807E19830A830115104C18F480618B833B
:10112000E1CF8861FCCF1F93CF93DF931F92CDB7A0
:10113000DEB7182F80E591E00E941E02812F0E94E9
:10114000D40527E0129FF0011124EA5EFA4F2281B4
:101150003381377041E050E0BE016F5F7F4F820FF7
:10116000931F0E94080889810F90DF91CF911F91F2
:101170000895FC01808D843040F4218D328D232B25
:1011800021F00E94930890E008958FEF9FEF08955B
:10119000CF93DF93FC012485243028F08FEF9FEF5D
:1011A000DF91CF910895EC010190F081E02D008452
:1011B000F185E02D0995892B89F38C850E94930890
:1011C00090E0EECFCF93DF931F92CDB7DEB741E033
:1011D00050E0BE016F5F7F4F0E94080889810F9029
:1011E000DF91CF91089590E080E00C94E208CF93D6
:1011F000DF93C4E1D0E00E94F308882361F061E04E
:1012000070E080E090E00E949D042197A1F780E0CB
:10121000DF91CF91089581E0FBCFDF92EF92FF92B3
:101220000F931F93CF93DF9300D0CDB7DEB760E36A
:1012300072E080E090E00E949D04DFB6F89401EB3C
:1012400013E035ECE32E33E0F32E8091A1048111FD
:1012500025C0F8018491F7019491E82FF0E0EE0F9A
:10126000FF1FEE59FE4FA591B4918C91982321F464
:1012700061E08AE00E94AA0361E08AE00E94D8034C
:101280008CB580618CBD8CB580648CBD61E08DE0D7
:101290000E94D80361E08BE00E94D8038091A104F2
:1012A0008F5F8093A104DFBEF8010491E02FF0E08E
:1012B000EE0FFF1FE459FE4F859194919093A00487
:1012C00080939F04F701E490E0929E0461E08AE03D
:1012D0000E94D8030E94F50480E591E00E941E025E
:1012E00084E380933A0580E80E94C1050E94F708D4
:1012F000882309F441C088E00E94C1050E94F308D8
:101300008830D1F580E10E94C1050E94F308803148
:1013100099F580E00E94C1050E94F308182F811101
:101320002BC08FE190E00E94E208833029F580E431
:101330008093A20442E06EE170E0812F0E941D06BE
:1013400042E06FE170E0812F0E941D061F5F1430A4
:1013500089F740E06EE170E0812F0E941D0640E0B9
:101360006FE170E0812F0E941D061F5F183089F722
:1013700081E08093150564C087E380933A0580E897
:101380000E94C1050E94F7088823F9F088E00E94B6
:10139000C1050E94F3088830C1F480E10E94C105B4
:1013A0000E94F308182F803181F480E00E94C1056B
:1013B0000E94F308811109C089E390E00E94E208CD
:1013C000843019F41093A204D3CF83E380933A05B9
:1013D00080E80E94C1050E94F708882371F180E12E
:1013E0000E94C1050E94F308803139F582E10E9414
:1013F000C1050E94F308823101F580E00E94C10519
:101400000E94F308811119C084E08093A20415E5BD
:101410001A8341E050E0BE016E5F7F4F8BE190E0A8
:101420000E941105198341E050E0BE016F5F7F4FBC
:101430008AE190E00E9411059BCF10923A0580E06E
:101440000F900F90DF91CF911F910F91FF90EF9030
:10145000DF9008952091A20430E0322F2227620FFE
:10146000731F90E0982F8827860F971F0C94E2082F
:10147000CF93C82F462F61E070E00E941D0661E007
:1014800070E08C2F0E942A0A8111F9CFCF91089524
:10149000CF93C82F80E591E00E941E0268E070E0C3
:1014A0008C2FCF910C94380ACF93C82F80E591E010
:1014B0000E941E0260E170E08C2FCF910C94380ADC
:1014C000CF93DF93EC01888D843020F40E94540A7E
:1014D00084E0888FDF91CF91089563E070E00C94F1
:1014E0002A0ACF93C82F80E591E00E941E028C2F1C
:1014F000CF910C946D0AEF92FF920F931F93CF93AD
:101500007C0102E315E0C0E0F801219131918F01E7
:10151000F701848195812817390729F0CF5FC430FE
:1015200099F780E006C08C2F0E94710A8431B1F7D0
:1015300081E0CF911F910F91FF90EF900895CF938D
:10154000DF93EC018C858430D0F40E94710A8431E1
:1015500089F0882379F0883169F021E08C3159F4E1
:10156000E881F9810084F185E02DCE01099521E023
:10157000892B09F420E0822FDF91CF91089580E03C
:10158000FBCFCF92DF92EF92FF92CF93DF93EC01EC
:101590008C85843068F40E94480A0E94CF046B0155
:1015A0007C018C850E94710A811109C084E08C87BE
:1015B000DF91CF91FF90EF90DF90CF90089561E0A1
:1015C00070E080E090E00E949D040E94CF04AB0197
:1015D000BC014C195D096E097F098D859E85B0E0BF
:1015E000A0E0481759076A077B07D8F28C850E944C
:1015F000540ADCCFCF93FC01C08D80E591E00E94BE
:101600001E0260E270E08C2F0E94380A62E070E0F7
:101610008C2F0E942A0A84FD16C062E070E08C2F95
:101620000E942A0A83FF0AC048E162E070E08C2F22
:101630000E941D0680E090E0CF91089580E591E042
:101640000E941E02E3CF40E162E070E08C2F0E9416
:101650001D0681E0F0CFDA01E091A204F0E0FE2F58
:10166000EE27E60FF71F90E0982F8827A901BD010C
:101670008E0F9F1F0C9408088F929F92AF92BF927B
:10168000CF92DF92EF92FF921F93CF93DF93CDB76C
:10169000DEB72C970FB6F894DEBF0FBECDBF2091FA
:1016A0003A0514E0222329F16B017C0180E591E0E9
:1016B0000E941E025E0127E0A20EB11C450110E04F
:1016C000812F0E946D0AF40181934F01882349F113
:1016D0001F5F1430A9F710E0F50181915F018D3192
:1016E000D9F08831C9F08A518230B0F01F5F1430D0
:1016F00099F7812F2C960FB6F894DEBF0FBECDBFA1
:10170000DF91CF911F91FF90EF90DF90CF90BF902E
:10171000AF909F908F90089560E170E0812F0E94BC
:10172000380AA12EB12CF501EE0FFF1FEE5CFA4F27
:101730001182108283EE93E00197F1F742E870E0A6
:1017400060E0812F0E941D064FEF62E070E0812F64
:101750000E941D06B601C114D10491F480910601C6
:101760009091070101968115F0EC9F0708F45CC089
:101770009093070180930601609106017091070123
:10178000812F0E94080686E0E2E1F1E0DE01119679
:1017900001900D928A95E1F7F70183818F778C8311
:1017A00084818D8385818E83A7014E5F5F4F24E006
:1017B00030E06CE070E0812F0E94E205B601812FDD
:1017C0000E94F30526E030E0AE014F5F5F4F66E018
:1017D00070E0812F0E94E20561E070E0812F0E949D
:1017E000380A27E02A9DC0012B9D900D11249C01F1
:1017F0002A5E3A4F7901F9011182108222E030E02D
:10180000AE01455F5F4F68E270E0812F0E942B0BB5
:101810008B859C85982789279827F7019383828356
:1018200016821582148265CF80E090ECA1CFCF9212
:10183000DF92EF92FF920F931F93CF93DF9300D02D
:1018400000D000D0CDB7DEB78C016B017A01FC016E
:10185000808D843010F40E94540A8BE891E09A83C2
:101860008983F60182819381A481B5818B839C83D6
:10187000AD83BE83B701CE0101960E943C0BF801F7
:10188000808F8430A0F4F586E486128E118E81E07C
:1018900026960FB6F894DEBF0FBECDBFDF91CF9175
:1018A0001F910F91FF90EF90DF90CF90089580E00F
:1018B000EFCFAF92BF92CF92DF92EF92FF920F9352
:1018C0001F93CF93DF9300D000D000D0CDB7DEB709
:1018D000082F6B0180E591E00E941E029E012F5FA0
:1018E0003F4F7901590110E0812F0E946D0AF501E7
:1018F00081935F01882341F11F5F1430A9F710E045
:10190000F70181917F018D31D1F08831C1F08A5189
:101910008230A8F01F5F143099F7812F26960FB6FA
:10192000F894DEBF0FBECDBFDF91CF911F910F9115
:10193000FF90EF90DF90CF90BF90AF90089560E15F
:1019400070E0812F0E94380AE12EF12CF701EE0F92
:10195000FF1FEE5CFA4F1182108283EE93E0019735
:10196000F1F7402F70E060E0812F0E941D064FEFDD
:1019700062E070E0812F0E941D06B601CD2889F437
:10198000809106019091070101968115F0EC9F0767
:1019900098F1909307018093060160910601709180
:1019A0000701812F0E94080661E070E0812F0E94EC
:1019B000380A27E02E9DC0012F9D900D11249C0117
:1019C0002A5E3A4F7901F9011182108222E030E05B
:1019D000AE014B5F5F4F68E270E0812F0E942B0BDE
:1019E0008D819E81982789279827F7019383828389
:1019F00016821582148291CF80E090ECCACFCF92EC
:101A0000DF92EF92FF921F93CF93DF93EC017B0164
:101A10006A018C85843048F40E94710A882319F089
:101A20008C850E94480A84E08C87F701828193812B
:101A3000A481B5810097A105B10551F490E080E043
:101A4000DF91CF911F91FF90EF90DF90CF9008959D
:101A50008F3F9F4FAF4FBF4F89F380913A05811160
:101A600003C084E08C87EACF70E060E081E20E94EE
:101A7000590C182F8C87843008F780E591E00E947C
:101A80001E02A7014E5F5F4F24E030E06CE070E083
:101A9000812F0E94E205B601812F0E94F30564E0C8
:101AA00070E0812F0E94380A0E94CF046B017C01F4
:101AB0008C850E94710A873109F18C31F9F08823F5
:101AC00009F4BCCF0E94CF04AB01BC014C195D09E5
:101AD0006E097F098D859E85B0E0A0E0841795078B
:101AE000A607B70738F061E070E080E090E00E9460
:101AF0009D04DECF8C850E94540AB3CF81E090E034
:101B00009FCF0F931F93CF93DF93EC018B01888DB1
:101B1000843010F40E94540A80913A05811107C064
:101B200094E0988FDF91CF911F910F910895B801A4
:101B300082E00E94590C888F843030F41D870C8716
:101B40001A8E198E81E0EECF80E0ECCF0F931F93B9
:101B5000CF9320913A05222349F18C01FC01648145
:101B6000758181E20E94590CC82F8430F8F480E519
:101B700091E00E941E028C2F0E946D0A833131F089
:101B80008C2FCF911F910F910C94480A62E070E066
:101B90008C2F0E94380AF80184819581EC2FF0E0A7
:101BA000EE0FFF1FEE5CFA4F91838083CF911F9160
:101BB0000F9108957F928F929F92AF92BF92CF9292
:101BC000DF92EF92FF920F931F93CF93DF9300D09A
:101BD000CDB7DEB7782E8B014A01590122E030E003
:101BE000AE014F5F5F4F64E270E00E942B0BE98013
:101BF000FA80FE24EF24FE24E00EF11E97013770D8
:101C000040913A05072D10E0433309F042C0085FC8
:101C10001F4F102F0027110F110F110FC901800F37
:101C2000911F4733C9F1A9014A0D5B1D413058404E
:101C300098F160E078E06B01C21AD30AA601B40102
:101C40000E941105A5014C195D09B4016C0D7D1DA3
:101C5000C8010E941105EA0CFB1CF982EA8222E00D
:101C600030E0AE014F5F5F4F64E270E0872D0E946D
:101C7000E2050F900F90DF91CF911F910F91FF9090
:101C8000EF90DF90CF90BF90AF909F908F907F901C
:101C90000895005F1F4FBDCFA501B401DACFEF92C9
:101CA000FF921F93CF93DF9300D0CDB7DEB7182FED
:101CB00022E030E0AE014F5F5F4F60E270E00E94D3
:101CC0002B0BE980FA80FE24EF24FE2422E030E092
:101CD000AE014F5F5F4F60E270E0812F0E942B0BDF
:101CE00089819A81982789279827E816F90689F427
:101CF00087E0189FF0011124EA5EFA4FF582E48232
:101D0000C7010F900F90DF91CF911F91FF90EF903F
:101D100008957C01DBCF1F93CF93DF93182F80E5CD
:101D200091E00E941E02812F0E944F0EEC01812F34
:101D30000E946D0A873121F08C3111F0D0E0C0E0B3
:101D4000CE01DF91CF911F910895CF93DF93EC01E6
:101D50008C85843060F40E94710A873111F08C31D7
:101D600031F48C850E948B0E8115984088F3DF91A9
:101D7000CF910895FC018485843010F40C948B0E6F
:101D800090E080E00895CF92DF92EF92FF921F9350
:101D9000CF93DF93182F7B01EA014130584010F0B8
:101DA000C0E0D8E080E591E00E941E02812F0E94F1
:101DB0004F0E6C01812F0E946D0A873111F08C311A
:101DC00021F5CC16DD0670F380E591E00E941E023D
:101DD0009E01A70170E060E0812F0E94DA0D60E2B1
:101DE00070E0812F0E94380A62E070E0812F0E942B
:101DF0002A0A84FD0DC0812F0E946D0A8823B9F044
:101E000080E591E00E941E02EFCFD0E0C0E0DCCF81
:101E100040E162E070E0812F0E941D06CE01DF915B
:101E2000CF911F91FF90EF90DF90CF900895D0E079
:101E3000C0E0F4CF0F931F93CF93DF938C01EA019F
:101E4000FC018485843048F40E94C30E892B39F448
:101E500081E090E0F80193838283D0E0C0E0CE017E
:101E6000DF91CF911F910F9108959F92AF92BF92F2
:101E7000CF92DF92EF92FF920F931F93CF93DF9356
:101E80008C015B01942EE52EFC01C688D788F08C6E
:101E900080E591E00E941E028F2D0E944F0EC92DF9
:101EA000DE2D8C179D0708F4EC019E01A501B601FB
:101EB0008F2D0E94DA0DF801868997898C0F9D1F5E
:101EC000978B868BCE01DF91CF911F910F91FF9061
:101ED000EF90DF90CF90BF90AF909F900895FF92CA
:101EE0000F931F93CF93DF9300D0CDB7DEB7F82EBB
:101EF00022E030E0AE014F5F5F4F66E270E00E948B
:101F00002B0B09811A8110270127102722E030E0CE
:101F1000AE014F5F5F4F66E270E08F2D0E942B0B8A
:101F200089819A819827892798270817190749F4E2
:101F3000C8010F900F90DF91CF911F910F91FF90EB
:101F400008958C01E3CF1F93CF93DF93182F87E081
:101F5000189FE0011124CA5EDA4F888199810097A9
:101F600061F480E591E00E941E02812F0E946F0FB4
:101F70002E81821B910999838883DF91CF911F91D4
:101F80000895AF92BF92CF92DF92EF92FF920F939C
:101F90001F93CF93DF93EC017B0180913A05811170
:101FA00020C01B821A8288EE93E0A0E0B0E08C8310
:101FB0009D83AE83BF838CE191E09983888384E025
:101FC0008C8788EE93E09E878D87CE01DF91CF913D
:101FD0001F910F91FF90EF90DF90CF90BF90AF9047
:101FE000089582E3C82E85E0D82E10E094E0B92E43
:101FF000A12CD6012D913D916D01F7018481958130
:102000002817390791F4812F0E94710A082F873110
:1020100011F08C3139F5812F0E94A30F892B59F5CE
:102020000C3119F4812F0E94480A1F5F143009F700
:10203000A11008C0D701ED91FC910084F185E02D3D
:10204000C70109951B821A8288EE93E0A0E0B0E0F8
:102050008C839D83AE83BF838CE191E099838883D9
:10206000BC86AFCF843149F08111DFCFF6013297C2
:1020700011821082DACFB12ED8CFAA24A394D5CF63
:102080008F929F92AF92BF92CF92DF92EF92FF9288
:102090001F93CF93DF93CDB7DEB72F970FB6F8948A
:1020A000DEBF0FBECDBF5C014B017A0180913A05C6
:1020B0008823A1F1B501CE0101960E94C10F82E3F0
:1020C000C82E85E0D82E10E0F601219131916F01E4
:1020D000F501848195812817390751F4812F0E94D9
:1020E000710A873129F4A701B401812F0E94C30E20
:1020F0001F5F143049F7C7012F960FB6F894DEBF63
:102100000FBECDBFDF91CF911F91FF90EF90DF9079
:10211000CF90BF90AF909F908F900895F12CE12CBD
:10212000EACFFC018485843010F40C94A30F90E076
:1021300080E008954F925F927F928F929F92AF922C
:10214000BF92CF92DF92EF92FF920F931F93CF93A4
:10215000DF9300D0CDB7DEB7782E6B014A01A82EF1
:10216000B12C27E0829FC0011124FC01EA5EFA4FE6
:102170007F010081118180E591E00E941E02081517
:10218000190554F4872D0E946F0FF70126818C01E9
:10219000021B1109118300830115110519F5872D03
:1021A0000E946D0A843159F0882349F001E010E063
:1021B0008C3111F410E000E0119501951109C8016E
:1021C0000F900F90DF91CF911F910F91FF90EF90A3
:1021D000DF90CF90BF90AF909F908F907F905F9057
:1021E0004F900895801691060CF4840187E08A9D33
:1021F000F0018B9DF00D1124EA5EFA4FE280F3802E
:10220000C114D10451F12701F7E05F22872D0E940C
:10221000D405840D951D20913A05273309F453C048
:102220009801240D351D2130384008F44CC020E0C1
:1022300038E0490184189508A401B6010E940808F5
:102240002601480C591C6801C818D908872D0E941E
:10225000D405A601B2010E940808E00EF11E87E035
:102260008A9DF0018B9DF00D1124EA5EFA4FF382F6
:10227000E28220813181201B310B318320838681D2
:10228000800F912F911D8A3F910510F4232BF1F4BB
:1022900087E08A9DF0018B9DF00D1124EA5EFA4FD4
:1022A0001682F982EA8222E030E0AE014F5F5F4F92
:1022B00068E270E0872D0E94E20560E470E0872DFF
:1022C0000E94380A7CCFA801B601C5CF868377CF9C
:1022D000CF93DF93FC01218D328D2115310529F437
:1022E0008FEF9FEFDF91CF910895EC01808D421722
:1022F000530708F0A9010E949A101816190684F7CE
:10230000298D3A8D281B390B3A8F298FEBCF0F93EC
:102310001F93CF93DF931F92CDB7DEB7FC01218DC2
:10232000328D232B41F48FEF9FEF0F90DF91CF91F0
:102330001F910F9108958C0141E050E0BE016F5F45
:102340007F4FFC01808D0E949A10181619065CF7C9
:10235000F801818D928D0197928F818F898190E014
:10236000E4CFCF93DF931F92CDB7DEB741E050E0CB
:10237000BE016F5F7F4FFC0184850E949A10181682
:10238000190634F4898190E00F90DF91CF91089580
:102390008FEF9FEFF9CF0F931F93CF93DF93EC0154
:1023A0000E94CF04688779878A879B87CE010E9425
:1023B000B11197FF15C00E94CF04088519852A85A1
:1023C0003B85601B710B820B930B0C811D812E8151
:1023D0003F81601771078207930740F38FEF9FEFEC
:1023E000DF91CF911F910F910895FC018485843076
:1023F00010F40C949A1090E080E008950F931F93CE
:10240000CF93DF9300D0CDB7DEB7FC012485243015
:10241000E0F48C0180E591E00E941E0222E030E0B1
:10242000AE014F5F5F4F60E170E0F80184850E946C
:102430002B0B89819A819827892798270F900F90D5
:10244000DF91CF911F910F91089590E080E0F6CF3A
:102450000F931F93CF93DF9300D0CDB7DEB7FC016E
:1024600024852430E0F48C0180E591E00E941E0276
:1024700022E030E0AE014F5F5F4F64E070E0F801B2
:1024800084850E942B0B89819A8198278927982718
:102490000F900F90DF91CF911F910F91089590E0D1
:1024A00080E0F6CFCF93DF93EC018BE891E0998346
:1024B00088831A821B821C821D8280E591E00E9423
:1024C0001E02BE016E5F7F4F44E050E08FE090E05F
:1024D0000E940808CE01DF91CF910895DC018BE8BE
:1024E00091E08D939D9384E0FB0101900D928A957C
:1024F000E1F70895EF92FF920F931F93CF93DF932D
:1025000000D000D0CDB7DEB78C017B01FB01848504
:102510008430A8F08BE891E0F801918380831282E7
:10252000138214821582C8010F900F900F900F90A4
:10253000DF91CF911F910F91FF90EF90089580E56B
:1025400091E00E941E0224E030E0AE014F5F5F4F39
:102550006CE070E0F70184850E942B0BBE016F5F79
:102560007F4FC8010E946E12DECF0F931F93CF934F
:10257000DF93CDB7DEB728970FB6F894DEBF0FBE56
:10258000CDBF8C01D80159964D915C915A97411558
:10259000510551F0ED91FC91048CF58DE02D70E02A
:1025A00060E0C8010995EECFF801808D0E94A30F6D
:1025B000892BB1F148E050E0BE016F5F7F4FD80139
:1025C00058968C910E949A1018161906F4F4D801A6
:1025D000509684E0FE01319601900D928A95E1F7C4
:1025E0008D8190E0982F88272E81820F911DF80110
:1025F000958B848B8F81282F30E0322F222788857E
:10260000820F932F911D928F818F28960FB6F89489
:10261000DEBF0FBECDBFDF91CF911F910F91089507
:1026200090E080E0F2CF4F925F926F927F928F9214
:102630009F92AF92BF92CF92DF92EF92FF920F9351
:102640001F93CF93DF93CDB7DEB763970FB6F894A0
:10265000DEBF0FBECDBF7C016B013A01FB0120E064
:1026600090E080E06AE03191332309F461C040EDED
:10267000430F4A3008F04DC0689FA001699F500D7C
:102680001124CA01C097830F911D37FD9A958F3F82
:10269000910549F340F3F7014281538164817581CB
:1026A0008091040690910506A0910606B091070658
:1026B000481759076A077B0709F40DC28701085FAD
:1026C0001F4F0E94CF046F7077277C5FC8010E9464
:1026D000810D813009F004C28BE891E09A838983EF
:1026E000F70182819381A481B5818B839C83AD8323
:1026F000BE8345E350E0BE016F5F7F4FC8010E947B
:10270000A306892BA9F5D12CC12CC8010E94600A0F
:1027100017C03E3209F0BFCF233009F4BCCFD3013C
:10272000A20FB11D12968C932F5F90E080E09BCF9B
:10273000233009F0B0CFF3018583CC24C394D12C8E
:10274000C60163960FB6F894DEBF0FBECDBFDF9112
:10275000CF911F910F91FF90EF90DF90CF90BF909E
:10276000AF909F908F907F906F905F904F90089563
:102770000E94CF04F7017783668342E050E0B701FF
:102780006A5F7F4FC8010E94350F81E090E09A8315
:10279000898342E050E0BE016F5F7F4FC8010E9415
:1027A000350F80E091E09A83898342E050E0BE01DA
:1027B0006F5F7F4FC8010E94350F1A82198242E075
:1027C00050E0BE016F5F7F4FC8010E94350F42E0AD
:1027D00050E0BE016F5F7F4FC8010E94350F42E09D
:1027E00050E0BE016F5F7F4FC8010E94350F560158
:1027F000F6018081882301F16501F60181912F01A5
:10280000882311F08E32B1F446018A189B081814FF
:10281000190474F48D8641E050E0BE01635F7F4F80
:10282000C8010E94350FA401B501C8010E94350FEF
:102830005201DECF6201E1CF1D8641E050E0BE01D2
:10284000635F7F4FC8010E94350FC12CDD24D394F4
:10285000DA82C98242E050E0BE016F5F7F4FC8015B
:102860000E94350FDA82C98242E050E0BE016F5FFC
:102870007F4FC8010E94350FC8010E94FA0A892BB8
:1028800009F441CFF3E0AF2EB12C230122E0420E38
:10289000511CD4C0F7014281538164817581808DC0
:1028A000918DA28DB38D481759076A077B0709F0F0
:1028B00008C1848D958DC59709F003C181A192A1AE
:1028C0005DEFC52EDD24DA940C970CF4ADC04CE01E
:1028D00050E0BE016F5F7F4FC8010E9468118B817D
:1028E0009C819827892798279A8B898BF7014681A5
:1028F000578129813A814217530709F0E7C097FFB2
:10290000E5C08F7092703BEFC32EDD24DA94892BE3
:1029100009F08AC06F8078847624672476242AEFB1
:10292000C22EDD24DA946114710409F47DC0D12C27
:10293000C12C8D819E81982789279827C816D90692
:10294000F8F441E050E0BE01635F7F4FC8010E9490
:1029500068114D85442331F050E070E060E0C8011B
:102960000E9468118D858111ECCF44E050E070E049
:1029700060E0C8010E946811FFEFCF1ADF0AD9CFCB
:10298000912C812C41E050E0BE016D5E7F4FC8016B
:102990000E9468114B89842F807C09F06CC044230D
:1029A00031F050E070E060E0C8010E9468118B894E
:1029B0008111E8CF42E050E0BE01615F7F4FC80166
:1029C0000E94681142E050E0BE01635F7F4FC80182
:1029D0000E94681144E050E070E060E0C8010E948D
:1029E000681142E050E0BE016F5E7F4FC8010E9457
:1029F00068118F85988949895A898115914009F014
:102A000043C0CD84DE84DC24CD24DC2481E0C816E0
:102A1000D104D1F54115544009F04AC044E050E0DA
:102A2000B201C8010E94681121E0A21AB10809F49C
:102A30006CCEFFEFCF16DF0609F067CE0E94CF0401
:102A40003B014C01C8010E94B512181619060CF47E
:102A500021CF0E94CF04661977098809990969383E
:102A600073418105910548F562E370E080E090E0F4
:102A70000E949D04E7CF41E050E070E060E0C801B3
:102A80000E9468111B8A93CF54274527542770E072
:102A900060E0C8010E946811FFEF8F1A9F0A681456
:102AA000790409F06FCF96EFC92EDD24DA94BCCFFC
:102AB000E7EFCE2EDD24DA94B7CFCC24CA94DC2CF9
:102AC000B3CF6EEFC62EDD24DA94AECF4CEFC42E1A
:102AD000DD24DA94A9CF8EEFC82EDD24DA9430CE2F
:102AE000D12CC12C2DCECF92DF92EF92FF920F937B
:102AF0001F93CF93DF93CDB7DEB7AF970FB6F894A0
:102B0000DEBF0FBECDBF7C016A010BE811E01A8366
:102B100009831C861B8688EE93E0A0E0B0E08D87D9
:102B20009E87AF87B88B8AE491E09A878987188F50
:102B30000F8B198E1A8E1B8E1C8E84E089A31BA707
:102B40000AA71CA61DA61EA61FA68091F805909197
:102B5000F905A091FA05B091FB058EA39FA3A8A744
:102B6000B9A78B839C83AD83BE8318861F82AE0179
:102B7000465D5F4FCE0101960E941313813091058F
:102B8000B1F4D701ED91FC910488F589E02D1DA3E6
:102B90000CA38CA59DA5AEA5BFA58EA39FA3A8A79A
:102BA000B9A7A601BE016C5D7F4FC7010995AF961D
:102BB0000FB6F894DEBF0FBECDBFDF91CF911F914E
:102BC0000F91FF90EF90DF90CF900895CF92DF921A
:102BD000EF92FF920F931F93CF93DF93CDB7DEB7A2
:102BE000AF970FB6F894DEBF0FBECDBF8C016B015F
:102BF0007A018BE891E09A8389831B821C821D8273
:102C00001E821C861B8648EE53E060E070E04D8714
:102C10005E876F87788B2AE431E03A872987988F1F
:102C20008F8B198E1A8E1B8E1C8E24E029A39BA7D6
:102C30008AA71CA61DA61EA61FA6D8011C968C91AD
:102C4000843060F40E94710A882321F0F8018485A1
:102C50000E94480A84E0D8011C968C938091F80564
:102C60009091F905A091FA05B091FB058EA39FA361
:102C7000A8A7B9A78B839C83AD83BE8318861F82C8
:102C8000AE01465D5F4FB601CE0101960E9413135F
:102C90000097C1F0D801ED91FC910684F785E02DF5
:102CA0008BE891E09DA38CA38CA59DA5AEA5BFA5A7
:102CB0008EA39FA3A8A7B9A7A701BE016C5D7F4FF4
:102CC000C8010995AF960FB6F894DEBF0FBECDBF11
:102CD000DF91CF911F910F91FF90EF90DF90CF90F8
:102CE0000895CF93DF93DC0114962D913C911597B5
:102CF000232B79F0FB01CD91DC9160817181CE01B4
:102D00000E948537009729F08C1B9D0BDF91CF9196
:102D100008958FEF9FEFFACF7F928F929F92AF929D
:102D2000BF92CF92DF92EF92FF920F931F93CF93B8
:102D3000DF93CDB7DEB7A6970FB6F894DEBF0FBE10
:102D4000CDBF8C01762E942E852E20E2A22ECE01B0
:102D500001967C01DC01EA2D1D92EA95E9F76801F4
:102D6000F3E4CF0ED11C8BE891E09AA389A38FEFF7
:102D70008BA38CA38DA38EA343E450E0BE016F5DB3
:102D80007F4FC6010E94A306019609F4BFC081E0EF
:102D900089838A8386E0B82EBB821C82D801149670
:102DA0006D917D918D919C9117970E9472356D83E5
:102DB0007E838F83988789869A8680E890E09C87B7
:102DC0008B874CE150E0B701C6010E94350FFE0130
:102DD00037968AE1DF011D928A95E9F74801B8E04C
:102DE0008B0E911CF401D70101900D92BA94E1F77A
:102DF00040E150E0B701C6010E94350FF701119282
:102E0000AA94E9F796E0A92EB12C40E250E0B70170
:102E1000C6010E94350FF1E0AF1AB108B1F783E6A1
:102E2000898392E89A8393E59B838C8385E38D83E2
:102E300081E08E837F829DE3988797E099878A87D8
:102E400086E0F401DE011B9601900D928A95E1F770
:102E50008CE0898B8A8B60EA71E0CE0143960E94F8
:102E60007E37D8011B966C91CE0149960E942102B3
:102E7000F8016485CE014B960E942102D8011D966F
:102E80006C91CE014D960E9421024EE150E0B701B7
:102E9000C6010E94350FB3E07B121EC082E3898316
:102EA00084E08A83F80196859B8397859C8390892B
:102EB0009D8391899E8396E39F838887828D8987EE
:102EC000838D8A87848D8B87858D8C874CE050E03D
:102ED000B701C6010E94350F87E3898386E08A83A4
:102EE00091E09B8393E09C838D838FE08E838AE3C4
:102EF0008F838BE388878FEF898749E050E0B701A4
:102F0000C6010E94350FC6010E94FA0AA6960FB6A6
:102F1000F894DEBF0FBECDBFDF91CF911F910F910F
:102F2000FF90EF90DF90CF90BF90AF909F908F90E9
:102F30007F9008950F931F93CF93DF938C01EB0144
:102F4000FC01808191810097E1F0688179816115B0
:102F50007105A9F0428153812C813D8142175307AD
:102F600070F00E947E378C819D81F8019583848367
:102F70001D821C82DF91CF911F910F9108950E94B5
:102F80001B3688819981F801918380838A819B8196
:102F9000938382838C819D81958384831982188297
:102FA0001B821A82E5CFCF93DF93EC018881998150
:102FB000009711F00E941B36198218821D821C8214
:102FC0001B821A82DF91CF910895FC01808191814B
:102FD000009711F00C941B3608950F931F93CF9315
:102FE000DF93EC0188819981009759F02A813B8118
:102FF0002617370730F081E0DF91CF911F910F91B5
:1030000008958B016F5F7F4F0E94A436009759F09F
:10301000998388831B830A832C813D81232B59F755
:10302000FC011082E8CF80E0E7CFEF92FF920F9390
:103030001F93CF93DF936115710541F480E0DF9119
:10304000CF911F910F91FF90EF9008954115510579
:10305000B1F07B01EC010C811D81040F151FB8013B
:103060000E94ED17882351F3288139818C819D813D
:10307000B701820F931F0E947E371D830C8381E06E
:10308000DECFFB0101900020E9F73197AF01461B2D
:10309000570B0C941518CF93DF93EC01FB010190B3
:1030A0000020E9F73197AF01461B570B0E94151816
:1030B000811103C0CE010E94D317CE01DF91CF91C1
:1030C0000895EF92FF920F931F93CF93DF93CDB7A5
:1030D000DEB764970FB6F894DEBF0FBECDBF7C019C
:1030E000CB01BA018E010F5F1F4F22E044E00E9426
:1030F000BA2FFC0101900020E9F73197AF01481B7E
:10310000590BBC01C7010E94151864960FB6F894BC
:10311000DEBF0FBECDBFDF91CF911F910F91FF900A
:10312000EF900895EF92FF920F931F93CF93DF9349
:10313000CDB7DEB728970FB6F894DEBF0FBECDBF70
:103140007C01CB014AE08E010F5F1F4FB8010E9446
:103150007C30F80101900020E9F73197AF01401B66
:10316000510BB801C7010E94151828960FB6F894A4
:10317000DEBF0FBECDBFDF91CF911F910F91FF90AA
:10318000EF900895EF92FF920F931F93CF93DF93E9
:1031900000D000D0CDB7DEB77C01862F4AE08E018B
:1031A0000F5F1F4FB80190E00E947C30F801019042
:1031B0000020E9F73197AF01401B510BB801C7015F
:1031C0000E9415180F900F900F900F90DF91CF91E4
:1031D0001F910F91FF90EF900895FB01448155815D
:1031E000608171810C941518EF92FF920F931F93D9
:1031F000CF93DF93EC017B018A01BA010E94ED17A6
:1032000081110BC0CE010E94D317CE01DF91CF9167
:103210001F910F91FF90EF9008951D830C83B701CC
:10322000888199810E947E37F0CFFB0101900020B8
:10323000E9F73197AF01461B570B0C94F418CF9365
:10324000DF9300D0CDB7DEB7FC011182108213826C
:1032500012821582148269831A82BE016F5F7F4FCA
:103260000E9415190F900F90DF91CF910895CF9381
:10327000DF93EC01FB018617970749F060817181AC
:103280006115710541F0448155810E94F418CE0109
:10329000DF91CF9108950E94D317F9CFFC011182DD
:1032A000108213821282158214820C943719FC0149
:1032B000118210821382128215821482FB01019006
:1032C0000020E9F73197AF01461B570B0C94F41817
:1032D0006F927F928F929F92AF92BF92CF92DF9226
:1032E000EF92FF920F931F93CF93DF93CDB7DEB78B
:1032F0005C016DB67EB690E080E00E94E333082F5B
:1033000010E0C80101962DB73EB7281B390B0FB648
:10331000F8943EBF0FBE2DBF8DB79EB701966C01CE
:103320004C01F12CE12CE016F10654F49FEFE91A60
:10333000F90AC7010E94E333F40181934F01F3CFEF
:10334000F601E00FF11F1082B601C5010E94571966
:10335000C5010FB6F8947EBE0FBE6DBEDF91CF9152
:103360001F910F91FF90EF90DF90CF90BF90AF90A3
:103370009F908F907F906F900895DF92EF92FF92D1
:103380000F931F93CF93DF9300D000D000D0CDB721
:10339000DEB77C01062FD42E6FE971E00E94571929
:1033A000DD20E1F161E0802F0E94AA0361E070E07E
:1033B000C7010E94921810E0CE0101960E94681980
:1033C000B801CE0101960E943802FC018081082ECE
:1033D000000C990BD816190671F0B801CE010196B0
:1033E000DD2019F10E94380221E3FC012083CE0187
:1033F00001960E94FC06CE0101960E94E517C701C6
:1034000026960FB6F894DEBF0FBECDBFDF91CF91E9
:103410001F910F91FF90EF90DF90089560E0802F53
:103420000E94AA0370E060E0C3CF0E94380220E34C
:10343000DCCFCF92DF92EF92FF920F931F93CF9347
:10344000DF93CDB7DEB7C554D1090FB6F894DEBF10
:103450000FBECDBF6FE971E0CE014C960E945719A7
:103460006FE971E0CE0182960E9457196FE971E011
:10347000CE0188960E9457196FE971E0CE018E96B1
:103480000E9457196FE971E0CE01C4960E94571946
:103490006FE971E0CE01CA960E94571967EA71E0A0
:1034A000CE0182960E94151963E376E0CE018296E2
:1034B0000E94ED1867E276E0CE0101960E94C10FEE
:1034C0008D85843010F00C943927CE0101960E942E
:1034D0009110892B39F461E070E080E090E00E9467
:1034E0009D04F3CF6FE971E0CE01805C9F4F0E9495
:1034F0005719CE0101960E94CB1197FD10C08D3057
:10350000910569F0888B198A41E050E0BE01605F47
:103510007F4FCE01805C9F4F0E941518EACFBE01FD
:10352000605C7F4F8BE395E00E94F607CE01019629
:103530000E94A50E67EA71E0CE0188960E941519D7
:1035400063E376E0CE0188960E94ED1869EA71E0A7
:10355000CE0188960E944118BE01685D7F4FCE0162
:10356000805C9F4F0E947116019609F4DDC0109295
:103570009A0410929B0410929C0410929D04109245
:103580009604109297041092980410929904188A45
:10359000198A1A8A1B8A1C8A61E080910E060E9491
:1035A000D80360E080910E060E94AA0362E170E0F9
:1035B00080E090E00E949D0462E080910E060E94EF
:1035C000D80328E230E040E050E061E080910E0650
:1035D0000E942E04672B682B692B11F00C940B268C
:1035E0008DEF80931006809110068D3F3CF18F3F48
:1035F00009F014F40C943127811120C080911D062C
:1036000090911E06A0911F06B091200680939A0407
:1036100090939B04A0939C04B0939D048091110609
:1036200090911206A0911306B0911406809396040F
:1036300090939704A0939804B09399040E94243027
:1036400024E6C22ED12CE12CF12CA70196010E9478
:10365000F9330E94EA326093960470939704809342
:103660009804909399040E942430A70196010E9427
:10367000F9330E94EA3260939A0470939B0480931A
:103680009C0490939D04CE0140960E94681961ECC1
:1036900071E0CE018E960E94151961E276E0CE01AE
:1036A0008E960E94ED1860ED71E0CE018E960E941C
:1036B000411840919604509197046091980470913C
:1036C0009904CE018E960E9461186BED71E0CE01D7
:1036D0008E960E9441186EED71E0CE018E960E948A
:1036E000411840919A0450919B0460919C04709100
:1036F0009D04CE018E960E9461186BED71E0CE01A3
:103700008E960E94411866EE71E0CE018E960E9460
:103710004118BE01605F7F4FCE018E960E94ED186A
:10372000CE0140960E94E517BE016E5D7F4FCE012F
:1037300040960E944E1963EF71E0CE0140960E94C0
:103740004B18BC01CE014C960E943719CE01409611
:103750000E94E517BE01645E7F4FCE01805C9F4FE3
:103760000E947116019689F041E064E0CE01409616
:103770000E94BD19BE01605F7F4FCE018E960E94F0
:103780009A17CE0140960E94E517BE016E5D7F4FED
:10379000CE0140960E944E196BEF71E0CE0140962B
:1037A0000E944B18BC01CE014C960E943719CE01E5
:1037B00040960E94E517BE01645E7F4FCE01805C9B
:1037C0009F4F0E947116019689F040E064E0CE019F
:1037D00040960E94BD19BE01605F7F4FCE018E965C
:1037E0000E949A17CE0140960E94E517BE016E5DB9
:1037F0007F4FCE0140960E944E1963E072E0CE01E9
:1038000040960E944B18BC01CE014C960E9437197D
:10381000CE0140960E94E517BE01645E7F4FCE0147
:10382000805C9F4F0E9471160196F9F0CE0146967A
:103830000E94681964E070E0CE0146960E9438024A
:10384000FC016081CE0140960E941F19BE01605F9D
:103850007F4FCE018E960E949A17CE0140960E940D
:10386000E517CE0146960E94E517BE016E5D7F4FBB
:10387000CE0140960E944E196FE072E0CE01409654
:103880000E944B18BC01CE014C960E943719CE0104
:1038900040960E94E517BE01645E7F4FCE01805CBA
:1038A0009F4F0E947116019689F041E065E0CE01BC
:1038B00040960E94BD19BE01605F7F4FCE018E967B
:1038C0000E949A17CE0140960E94E517BE016E5DD8
:1038D0007F4FCE0140960E944E1967E172E0CE0103
:1038E00040960E944B18BC01CE014C960E9437199D
:1038F000CE0140960E94E517BE01645E7F4FCE0167
:10390000805C9F4F0E947116019689F040E065E04F
:10391000CE0140960E94BD19BE01605F7F4FCE016F
:103920008E960E949A17CE0140960E94E517BE011E
:103930006E5D7F4FCE0140960E944E196FE172E09E
:10394000CE0140960E944B18BC01CE014C960E94BD
:103950003719CE0140960E94E517BE01645E7F4F85
:10396000CE01805C9F4F0E9471160196F9F0CE0146
:1039700046960E94681965E070E0CE0146960E9466
:103980003802FC016081CE0140960E941F19BE01E1
:10399000605F7F4FCE018E960E949A17CE014096AF
:1039A0000E94E517CE0146960E94E517BE016E5DA6
:1039B0007F4FCE0140960E944E196BE272E0CE011D
:1039C00040960E944B18BC01CE014C960E943719BC
:1039D000CE0140960E94E517BE01645E7F4FCE0186
:1039E000805C9F4F0E947116019689F041E066E06D
:1039F000CE0140960E94BD19BE01605F7F4FCE018F
:103A00008E960E949A17CE0140960E94E517BE013D
:103A10006E5D7F4FCE0140960E944E1963E372E0C7
:103A2000CE0140960E944B18BC01CE014C960E94DC
:103A30003719CE0140960E94E517BE01645E7F4FA4
:103A4000CE01805C9F4F0E947116019689F040E084
:103A500066E0CE0140960E94BD19BE01605F7F4FB7
:103A6000CE018E960E949A17CE0140960E94E517CD
:103A7000BE016E5D7F4FCE0140960E944E196BE3F2
:103A800072E0CE0140960E944B18BC01CE014C96CC
:103A90000E943719CE0140960E94E517BE01645E70
:103AA0007F4FCE01805C9F4F0E9471160196F9F006
:103AB000CE0146960E94681966E070E0CE014696F7
:103AC0000E943802FC016081CE0140960E941F19BD
:103AD000BE01605F7F4FCE018E960E949A17CE0185
:103AE00040960E94E517CE0146960E94E517BE015A
:103AF0006E5D7F4FCE0140960E944E1967E472E0E2
:103B0000CE0140960E944B18BC01CE014C960E94FB
:103B10003719CE0140960E94E517BE01645E7F4FC3
:103B2000CE01805C9F4F0E947116019689F041E0A2
:103B300067E0CE0140960E94BD19BE01605F7F4FD5
:103B4000CE018E960E949A17CE0140960E94E517EC
:103B5000BE016E5D7F4FCE0140960E944E196FE40C
:103B600072E0CE0140960E944B18BC01CE014C96EB
:103B70000E943719CE0140960E94E517BE01645E8F
:103B80007F4FCE01805C9F4F0E947116019689F095
:103B900040E067E0CE0140960E94BD19BE01605F23
:103BA0007F4FCE018E960E949A17CE0140960E94BA
:103BB000E517BE016E5D7F4FCE0140960E944E1903
:103BC00067E572E0CE0140960E944B18BC01CE0121
:103BD0004C960E943719CE0140960E94E517BE010F
:103BE000645E7F4FCE01805C9F4F0E9471160196EC
:103BF000F9F0CE0146960E94681967E070E0CE01A8
:103C000046960E943802FC016081CE0140960E94D7
:103C10001F19BE01605F7F4FCE018E960E949A17DA
:103C2000CE0140960E94E517CE0146960E94E51708
:103C3000BE016E5D7F4FCE0140960E944E1963E635
:103C400072E0CE0140960E944B18BC01CE014C960A
:103C50000E943719CE0140960E94E517BE01645EAE
:103C60007F4FCE01805C9F4F0E947116019689F0B4
:103C700041E068E0CE0140960E94BD19BE01605F40
:103C80007F4FCE018E960E949A17CE0140960E94D9
:103C9000E517BE016E5D7F4FCE0140960E944E1922
:103CA0006BE672E0CE0140960E944B18BC01CE013B
:103CB0004C960E943719CE0140960E94E517BE012E
:103CC000645E7F4FCE01805C9F4F0E94711601960B
:103CD00089F040E068E0CE0140960E94BD19BE0127
:103CE000605F7F4FCE018E960E949A17CE0140965C
:103CF0000E94E517BE016E5D7F4FCE0140960E9487
:103D00004E1963E772E0CE0140960E944B18BC0149
:103D1000CE014C960E943719CE0140960E94E517BD
:103D2000BE01645E7F4FCE01805C9F4F0E94711682
:103D30000196F9F0CE0146960E94681968E070E09D
:103D4000CE0146960E943802FC016081CE01409669
:103D50000E941F19BE01605F7F4FCE018E960E94A8
:103D60009A17CE0140960E94E517CE0146960E9412
:103D7000E517BE016E5D7F4FCE0140960E944E1941
:103D80006FE772E0CE0140960E944B18BC01CE0155
:103D90004C960E943719CE0140960E94E517BE014D
:103DA000645E7F4FCE01805C9F4F0E94711601962A
:103DB00089F041E069E0CE0140960E94BD19BE0144
:103DC000605F7F4FCE018E960E949A17CE0140967B
:103DD0000E94E517BE016E5D7F4FCE0140960E94A6
:103DE0004E1967E872E0CE0140960E944B18BC0164
:103DF000CE014C960E943719CE0140960E94E517DD
:103E0000BE01645E7F4FCE01805C9F4F0E947116A1
:103E1000019689F040E069E0CE0140960E94BD190C
:103E2000BE01605F7F4FCE018E960E949A17CE0131
:103E300040960E94E517BE016E5D7F4FCE01409611
:103E40000E944E196FE872E0CE0140960E944B1816
:103E5000BC01CE014C960E943719CE0140960E94BB
:103E6000E517BE01645E7F4FCE01805C9F4F0E94CC
:103E700071160196F9F0CE0146960E94681969E024
:103E800070E0CE0146960E943802FC016081CE01AE
:103E900040960E941F19BE01605F7F4FCE018E9633
:103EA0000E949A17CE0140960E94E517CE014696D1
:103EB0000E94E517BE016E5D7F4FCE0140960E94C5
:103EC0004E196BE972E0CE0140960E944B18BC017E
:103ED000CE014C960E943719CE0140960E94E517FC
:103EE000BE01645E7F4FCE01805C9F4F0E947116C1
:103EF000019689F041E06AE0CE0140960E94BD192A
:103F0000BE01605F7F4FCE018E960E949A17CE0150
:103F100040960E94E517BE016E5D7F4FCE01409630
:103F20000E944E1964EA72E0CE0140960E944B183E
:103F3000BC01CE014C960E943719CE0140960E94DA
:103F4000E517BE01645E7F4FCE01805C9F4F0E94EB
:103F50007116019689F040E06AE0CE0140960E9419
:103F6000BD19BE01605F7F4FCE018E960E949A17E9
:103F7000CE0140960E94E517BE016E5D7F4FCE01D7
:103F800040960E944E196DEA72E0CE0140960E9462
:103F90004B18BC01CE014C960E943719CE014096B9
:103FA0000E94E517BE01645E7F4FCE01805C9F4F8B
:103FB0000E9471160196F9F0CE0146960E9468198A
:103FC0006AE070E0CE0146960E943802FC016081F2
:103FD000CE0140960E941F19BE01605F7F4FCE0147
:103FE0008E960E949A17CE0140960E94E517CE0148
:103FF00046960E94E517BE016E5D7F4FCE0140964A
:104000000E944E196AEB72E0CE0140960E944B1856
:10401000BC01CE014C960E943719CE0140960E94F9
:10402000E517BE01645E7F4FCE01805C9F4F0E940A
:104030007116019689F041E06BE0CE0140960E9436
:10404000BD19BE01605F7F4FCE018E960E949A1708
:10405000CE0140960E94E517BE016E5D7F4FCE01F6
:1040600040960E944E1963EC72E0CE0140960E9489
:104070004B18BC01CE014C960E943719CE014096D8
:104080000E94E517BE01645E7F4FCE01805C9F4FAA
:104090000E947116019689F040E06BE0CE014096D7
:1040A0000E94BD19BE01605F7F4FCE018E960E94B7
:1040B0009A17CE0140960E94E517BE016E5D7F4FB4
:1040C000CE0140960E944E196CEC72E0CE014096F3
:1040D0000E944B18BC01CE014C960E943719CE01AC
:1040E00040960E94E517BE01645E7F4FCE01805C62
:1040F0009F4F0E9471160196F9F0CE0146960E94DC
:1041000068196BE070E0CE0146960E943802FC010F
:104110006081CE0140960E941F19BE01605F7F4FF3
:10412000CE018E960E949A17CE0140960E94E51706
:10413000CE0146960E94E517BE016E5D7F4FCE010F
:1041400040960E944E1969ED72E0CE0140960E94A1
:104150004B18BC01CE014C960E943719CE014096F7
:104160000E94E517BE01645E7F4FCE01805C9F4FC9
:104170000E947116019689F041E06CE0CE014096F4
:104180000E94BD19BE01605F7F4FCE018E960E94D6
:104190009A17CE0140960E94E517BE016E5D7F4FD3
:1041A000CE0140960E944E1962EE72E0CE0140961A
:1041B0000E944B18BC01CE014C960E943719CE01CB
:1041C00040960E94E517BE01645E7F4FCE01805C81
:1041D0009F4F0E947116019689F040E06CE0CE017D
:1041E00040960E94BD19BE01605F7F4FCE018E9642
:1041F0000E949A17CE0140960E94E517BE016E5D9F
:104200007F4FCE0140960E944E196BEE72E0CE01B8
:1042100040960E944B18BC01CE014C960E94371963
:10422000CE0140960E94E517BE01645E7F4FCE012D
:10423000805C9F4F0E9471160196F9F0CE01469660
:104240000E9468196CE070E0CE0146960E94380228
:10425000FC016081CE0140960E941F19BE01605F83
:104260007F4FCE018E960E949A17CE0140960E94F3
:10427000E517CE0146960E94E517BE016E5D7F4FA1
:10428000CE0140960E944E1968EF72E0CE01409632
:104290000E944B18BC01CE014C960E943719CE01EA
:1042A00040960E94E517BE01645E7F4FCE01805CA0
:1042B0009F4F0E947116019689F041E06DE0CE019A
:1042C00040960E94BD19BE01605F7F4FCE018E9661
:1042D0000E949A17CE0140960E94E517BE016E5DBE
:1042E0007F4FCE0140960E944E1961E073E0CE01EF
:1042F00040960E944B18BC01CE014C960E94371983
:10430000CE0140960E94E517BE01645E7F4FCE014C
:10431000805C9F4F0E947116019689F040E06DE02D
:10432000CE0140960E94BD19BE01605F7F4FCE0155
:104330008E960E949A17CE0140960E94E517BE0104
:104340006E5D7F4FCE0140960E944E196AE073E089
:10435000CE0140960E944B18BC01CE014C960E94A3
:104360003719CE0140960E94E517BE01645E7F4F6B
:10437000CE01805C9F4F0E9471160196F9F0CE012C
:1043800046960E9468196DE070E0CE0146960E9444
:104390003802FC016081CE0140960E941F19BE01C7
:1043A000605F7F4FCE018E960E949A17CE01409695
:1043B0000E94E517CE0146960E94E517BE016E5D8C
:1043C0007F4FCE0140960E944E1967E173E0CE0107
:1043D00040960E944B18BC01CE014C960E943719A2
:1043E000CE0140960E94E517BE01645E7F4FCE016C
:1043F000805C9F4F0E947116019689F041E06EE04B
:10440000CE0140960E94BD19BE01605F7F4FCE0174
:104410008E960E949A17CE0140960E94E517BE0123
:104420006E5D7F4FCE0140960E944E1960E273E0B0
:10443000CE0140960E944B18BC01CE014C960E94C2
:104440003719CE0140960E94E517BE01645E7F4F8A
:10445000CE01805C9F4F0E947116019689F040E06A
:104460006EE0CE0140960E94BD19BE01605F7F4F95
:10447000CE018E960E949A17CE0140960E94E517B3
:10448000BE016E5D7F4FCE0140960E944E1969E2DB
:1044900073E0CE0140960E944B18BC01CE014C96B1
:1044A0000E943719CE0140960E94E517BE01645E56
:1044B0007F4FCE01805C9F4F0E9471160196F9F0EC
:1044C000CE0146960E9468196EE070E0CE014696D5
:1044D0000E943802FC016081CE0140960E941F19A3
:1044E000BE01605F7F4FCE018E960E949A17CE016B
:1044F00040960E94E517CE0146960E94E517BE0140
:104500006E5D7F4FCE0140960E944E1966E373E0C8
:10451000CE0140960E944B18BC01CE014C960E94E1
:104520003719CE0140960E94E517BE01645E7F4FA9
:10453000CE01805C9F4F0E947116019689F041E088
:104540006FE0CE0140960E94BD19BE01605F7F4FB3
:10455000CE018E960E949A17CE0140960E94E517D2
:10456000BE016E5D7F4FCE0140960E944E196FE3F3
:1045700073E0CE0140960E944B18BC01CE014C96D0
:104580000E943719CE0140960E94E517BE01645E75
:104590007F4FCE01805C9F4F0E947116019689F07B
:1045A00040E06FE0CE0140960E94BD19BE01605F01
:1045B0007F4FCE018E960E949A17CE0140960E94A0
:1045C000E517BE016E5D7F4FCE0140960E944E19E9
:1045D00068E473E0CE0140960E944B18BC01CE0106
:1045E0004C960E943719CE0140960E94E517BE01F5
:1045F000645E7F4FCE01805C9F4F0E9471160196D2
:10460000F9F0CE0146960E9468196FE070E0CE0185
:1046100046960E943802FC016081CE0140960E94BD
:104620001F19BE01605F7F4FCE018E960E949A17C0
:10463000CE0140960E94E517CE0146960E94E517EE
:10464000BE016E5D7F4FCE0140960E944E1965E51A
:1046500073E0CE0140960E944B18BC01CE014C96EF
:104660000E943719CE0140960E94E517BE01645E94
:104670007F4FCE01805C9F4F0E947116019689F09A
:1046800041E060E1CE0140960E94BD19BE01605F2D
:104690007F4FCE018E960E949A17CE0140960E94BF
:1046A000E517BE016E5D7F4FCE0140960E944E1908
:1046B0006EE573E0CE0140960E944B18BC01CE011E
:1046C0004C960E943719CE0140960E94E517BE0114
:1046D000645E7F4FCE01805C9F4F0E9471160196F1
:1046E00089F040E060E1CE0140960E94BD19BE0114
:1046F000605F7F4FCE018E960E949A17CE01409642
:104700000E94E517BE016E5D7F4FCE0140960E946C
:104710004E1967E673E0CE0140960E944B18BC012B
:10472000CE014C960E943719CE0140960E94E517A3
:10473000BE01645E7F4FCE01805C9F4F0E94711668
:104740000196F9F0CE0146960E94681960E170E08A
:10475000CE0146960E943802FC016081CE0140964F
:104760000E941F19BE01605F7F4FCE018E960E948E
:104770009A17CE0140960E94E517CE0146960E94F8
:10478000E517BE016E5D7F4FCE0140960E944E1927
:1047900064E773E0CE0140960E944B18BC01CE0145
:1047A0004C960E943719CE0140960E94E517BE0133
:1047B000645E7F4FCE01805C9F4F0E947116019610
:1047C00089F041E061E1CE0140960E94BD19BE0131
:1047D000605F7F4FCE018E960E949A17CE01409661
:1047E0000E94E517BE016E5D7F4FCE0140960E948C
:1047F0004E196DE773E0CE0140960E944B18BC0144
:10480000CE014C960E943719CE0140960E94E517C2
:10481000BE01645E7F4FCE01805C9F4F0E94711687
:10482000019689F040E061E1CE0140960E94BD19F9
:10483000BE01605F7F4FCE018E960E949A17CE0117
:1048400040960E94E517BE016E5D7F4FCE014096F7
:104850000E944E1966E873E0CE0140960E944B1804
:10486000BC01CE014C960E943719CE0140960E94A1
:10487000E517BE01645E7F4FCE01805C9F4F0E94B2
:1048800071160196F9F0CE0146960E94681961E111
:1048900070E0CE0146960E943802FC016081CE0194
:1048A00040960E941F19BE01605F7F4FCE018E9619
:1048B0000E949A17CE0140960E94E517CE014696B7
:1048C0000E94E517BE016E5D7F4FCE0140960E94AB
:1048D0004E1963E973E0CE0140960E944B18BC016B
:1048E000CE014C960E943719CE0140960E94E517E2
:1048F000BE01645E7F4FCE01805C9F4F0E947116A7
:10490000019689F041E062E1CE0140960E94BD1916
:10491000BE01605F7F4FCE018E960E949A17CE0136
:1049200040960E94E517BE016E5D7F4FCE01409616
:104930000E944E196CE973E0CE0140960E944B181C
:10494000BC01CE014C960E943719CE0140960E94C0
:10495000E517BE01645E7F4FCE01805C9F4F0E94D1
:104960007116019689F040E062E1CE0140960E9406
:10497000BD19BE01605F7F4FCE018E960E949A17CF
:10498000CE0140960E94E517BE016E5D7F4FCE01BD
:1049900040960E944E1965EA73E0CE0140960E944F
:1049A0004B18BC01CE014C960E943719CE0140969F
:1049B0000E94E517BE01645E7F4FCE01805C9F4F71
:1049C0000E9471160196F9F0CE0146960E94681970
:1049D00062E170E0CE0146960E943802FC016081DF
:1049E000CE0140960E941F19BE01605F7F4FCE012D
:1049F0008E960E949A17CE0140960E94E517CE012E
:104A000046960E94E517BE016E5D7F4FCE0140962F
:104A10000E944E1962EB73E0CE0140960E944B1843
:104A2000BC01CE014C960E943719CE0140960E94DF
:104A3000E517BE01645E7F4FCE01805C9F4F0E94F0
:104A40007116019689F041E063E1CE0140960E9423
:104A5000BD19BE01605F7F4FCE018E960E949A17EE
:104A6000CE0140960E94E517BE016E5D7F4FCE01DC
:104A700040960E944E196BEB73E0CE0140960E9467
:104A80004B18BC01CE014C960E943719CE014096BE
:104A90000E94E517BE01645E7F4FCE01805C9F4F90
:104AA0000E947116019689F040E063E1CE014096C4
:104AB0000E94BD19BE01605F7F4FCE018E960E949D
:104AC0009A17CE0140960E94E517BE016E5D7F4F9A
:104AD000CE0140960E944E1964EC73E0CE014096E0
:104AE0000E944B18BC01CE014C960E943719CE0192
:104AF00040960E94E517BE01645E7F4FCE01805C48
:104B00009F4F0E9471160196F9F0CE0146960E94C1
:104B1000681963E170E0CE0146960E943802FC01FC
:104B20006081CE0140960E941F19BE01605F7F4FD9
:104B3000CE018E960E949A17CE0140960E94E517EC
:104B4000CE0146960E94E51761ED73E0CE01019615
:104B50000E94E40761EE73E0CE0101960E94E40733
:104B60006FE971E0CE0101960E94E40760E074E015
:104B7000CE01C4960E941519BE01625D7F4FCE0121
:104B8000C4960E94ED186CE074E0CE01C4960E94B9
:104B90004118BE016C5C7F4FCE0101960E94F60762
:104BA000CE0101960E94D20761E070E080E090E0C3
:104BB0000E949D04CE0101960E94C10ACE01805C34
:104BC0009F4F0E94E517CE01CA960E94E517CE01BD
:104BD000C4960E94E517CE018E960E94E517CE017D
:104BE00088960E94E517CE0182960E94E517CE01B5
:104BF0004C960E94E517CB5BDF4F0FB6F894DEBFF3
:104C00000FBECDBFDF91CF911F910F91FF90EF901D
:104C1000DF90CF90089520E530E040E050E060E084
:104C200080910E060E942E04672B682B692B11F4CD
:104C30000C94F01A20E530E040E050E061E0809113
:104C40000E060E942E04672B682B692B11F40C941E
:104C5000F01A10E000E022E330E040E050E060E0D5
:104C600080910E060E942E0424E630E040E050E0E1
:104C700061E080910E060E942E04662339F1F8014E
:104C800073E0F595E7957A95E1F780E190E08C0F78
:104C90009D1FE80FF91F8081880F91E06E3208F4A4
:104CA00090E0890F80830F5F1F4F0832110599F63E
:104CB000688949890A891B89862F840F800F810F93
:104CC0009C89891731F08FEF0C94F11A8EEF0C94B8
:104CD000F11A80910F06853109F487C0863109F4F5
:104CE000BAC08B3009F06AC070E090E080E00E94AA
:104CF000E83260931D0670931E0680931F06909302
:104D00002006602F70E090E080E00E94EA326B01A4
:104D10007C0117FF57C01F77612F70E090E080E0A3
:104D20000E94EA322DEC3CEC4CEC5DE30E94253312
:104D30009B01AC0160E070E080E89FE30E94933447
:104D4000A70196010E9494346B017C01F7FAF0945C
:104D5000F7F8F094C0921106D0921206E092130672
:104D6000F092140620E030E040E151E4C701B601C2
:104D70000E94253320E030E040EA50E40E940035F4
:104D800020E030E040E052E40E9494346093150645
:104D900070931606809317069093180623E333E961
:104DA00048E853E4C701B6010E94943460931906A1
:104DB00070931A0680931B0690931C06109210069F
:104DC0000C94F31A612F70E090E080E00E94EA32C8
:104DD0002DEC3CEC4CEC5DE30E942533A7019601E1
:104DE0000E9494346B017C01B5CF262F30E0322F26
:104DF0002227B901640F711D072E000C880B990B37
:104E00000E94EA322DEC3CEC4CEC5DE30E94253331
:104E100060931D0670931E0680931F0690932006D4
:104E2000602F70E0762F662766277F77610F711DF0
:104E3000072E000C880B990B0E94EA322DEC3CECFB
:104E40004CEC5DEB07FD04C02DEC3CEC4CEC5DE361
:104E50000E942533C7CF862F90E0982F8827BC016A
:104E6000C9CF63EB71E081E296E00E9415190C94C2
:104E70001E1BCE01CA960E94E517CE01C4960E9461
:104E8000E517CE018E960E94E517CE018896A9CE31
:104E90003F924F925F926F927F928F929F92AF92CA
:104EA000BF92CF92DF92EF92FF920F931F93CF9317
:104EB000DF93CDB7DEB7EA970FB6F894DEBF0FBE2B
:104EC000CDBF7C012A013B0169010E94CF044B0147
:104ED0005C0187010D5B1F4FC8010E94B5121816B7
:104EE00019069CF00E94CF04681979098A099B0968
:104EF000461657066806790608F466C162E370E054
:104F000080E090E00E949D04E7CF42E250E0BE01C5
:104F10006F5F7F4FC8010E94681189818230D1F094
:104F2000312C832DEA960FB6F894DEBF0FBECDBFAD
:104F3000DF91CF911F910F91FF90EF90DF90CF9075
:104F4000BF90AF909F908F907F906F905F904F90A9
:104F50003F900895F801848995898334910501F77C
:104F60006D817E818F8198850E9472354B015C0135
:104F7000F60180829182A282B38246E050E0B701BE
:104F8000685F7F4FCE014D960E946137892B41F6B5
:104F9000F70180819181A281B38188169906AA06C2
:104FA000BB0608F4BDCF84819581A681B7818815A1
:104FB0009905AA05BB0508F4B3CF89899A89AB89FD
:104FC000BC8986879787A08BB18B4EEC50E070E050
:104FD00060E0C8010E946811312CC701829698AB2D
:104FE0008FA7F701B696FAABE9AB08969CAB8BABF3
:104FF00067019AE1C90ED11CBD96FEABEDABC701AE
:10500000429698AF8FABFD97FAAFE9AF4701FEE14B
:105010008F0E911CF801818D928D181619060CF0D7
:1050200080CFC8010E9487118333910509F4B2C073
:1050300014F58130910509F464C044F4892B51F3CF
:10504000C8010E948711AC01552775C083309105B6
:1050500009F462C00697A1F7C8010E948711B82E13
:1050600044E050E0B401C8010E946811EB2DE45007
:10507000FF0BAF0160C08A33910509F45FC084F56E
:1050800085339105B1F1C697D9F6C8010E94871101
:105090005C01B601CE0189960E946E128BA59CA57B
:1050A000ADA5BEA5892B8A2B8B2BB1F0EDA9FEA94E
:1050B0004080518062807380B601CE0183960E9449
:1050C0006E128DA19EA1AFA1B8A5A50148165906E3
:1050D0006A067B0609F0B8CF44E050E0B60118C07C
:1050E0008B33910509F440C08F3F910509F492CFAD
:1050F000A7CFC8010E948711C8010E948711382ECE
:1051000089CFC8010E94871144E050E06FA978ADB3
:10511000C8010E9468117ECFC8010E948711B82E75
:1051200044E050E069AD7AADC8010E9468118B2D52
:105130008450990BAC0170E060E0EACFC8010E9496
:10514000871144E050E069A97AA9C8010E9468115A
:10515000F70166A177A180A591A50E94723566A38B
:1051600077A380A791A756CFC8010E94871144E07A
:1051700050E06BA97CA9C8010E946811F70162A5E3
:1051800073A584A595A50E94723562A773A784A70D
:1051900095A740CFC8010E94871144E050E06FA559
:1051A00078A9C8010E946811F70162A173A184A1C6
:1051B00095A10E94723562A373A384A395A366A7E9
:1051C00077A780AB91AB26CF33243A94AACE1F9217
:1051D0000F920FB60F9211242F933F934F935F932B
:1051E0006F937F938F939F93AF93BF93EF93FF93AF
:1051F0008BE395E00E94D702FF91EF91BF91AF91B1
:105200009F918F917F916F915F914F913F912F91DE
:105210000F900FBE0F901F9018951F920F920FB610
:105220000F9211242F938F939F93EF93FF93E0910D
:105230004B05F0914C058081E0915105F0915205AC
:1052400082FD1BC09081809154058F5F8F732091E8
:105250005505821741F0E0915405F0E0E55CFA4F06
:10526000958F80935405FF91EF919F918F912F918E
:105270000F900FBE0F901F9018958081F4CF1F9252
:105280000F920FB60F9211242F933F938F939F93FA
:10529000AF93BF938091A4049091A504A091A6041C
:1052A000B091A7043091A30423E0230F2D3758F5C4
:1052B0000196A11DB11D2093A3048093A404909393
:1052C000A504A093A604B093A7048091A80490918C
:1052D000A904A091AA04B091AB040196A11DB11D2F
:1052E0008093A8049093A904A093AA04B093AB045C
:1052F000BF91AF919F918F913F912F910F900FBED2
:105300000F901F90189526E8230F0296A11DB11D3E
:10531000D2CFCF93DF93EBE3F5E01382128288EED6
:1053200093E0A0E0B0E084839583A683B78389E708
:1053300091E09183808385EC90E09587848784EC6D
:1053400090E09787868780EC90E0918B808B81EC52
:1053500090E0938B828B82EC90E0958B848B86EC33
:1053600090E0978B868B118E128E138E148EE8ED43
:10537000F5E0CBE8D1E0D183C0831282138214829E
:105380001582EEEDF5E0D183C08312821382148280
:105390001582E4EEF5E0D183C08312821382148279
:1053A0001582EAEEF5E0D183C08312821382148263
:1053B0001582E0EFF5E0D183C0831282138214825C
:1053C0001582ECEFF5E0D183C08312821382148240
:1053D0001582E6EFF5E0D183C08312821382148236
:1053E0001582E2E0F6E0D183C08312821382148238
:1053F0001582E8E0F6E0D183C08312821382148222
:105400001582E9E3F6E0D183C0831282138214820D
:1054100015826FE971E083E396E00E945719EDE28F
:10542000F6E0D183C08380EC828388EA838384E6BC
:10543000848388EC8583E7E2F6E01382128281E9B7
:1054400091E09183808380E590E0958384836FE091
:1054500074E081E296E00E945719EEE0F6E082E007
:1054600080838BE08183DF91CF910895CF93DF9389
:10547000CDB7DEB768970FB6F894DEBF0FBECDBFCD
:10548000789484B5826084BD84B5816084BD85B51F
:10549000826085BD85B5816085BD80916E0081602B
:1054A00080936E00109281008091810082608093D1
:1054B00081008091810081608093810080918000D3
:1054C0008160809380008091B10084608093B100FE
:1054D0008091B00081608093B00080917A008460F8
:1054E00080937A0080917A00826080937A00809124
:1054F0007A00816080937A0080917A00806880933E
:105500007A001092C100E0914B05F0914C0582E0C9
:105510008083E0914705F09148051082E0914905AC
:10552000F0914A058FEC808310925305E0914F056E
:10553000F091500586E08083E0914D05F0914E0595
:10554000808180618083E0914D05F0914E058081DE
:1055500088608083E0914D05F0914E0580818068E0
:105560008083E0914D05F0914E0580818F7D808391
:1055700061E084E00E94D80361E085E00E94D803E6
:1055800061E086E00E94D80361E087E00E94D803D2
:1055900061E088E00E94D80361E089E00E94D803BE
:1055A00061E08AE00E94D80361E08BE00E94D803AA
:1055B00061E08CE00E94D80361E08DE00E94D80396
:1055C00061E08EE00E94D80361E08FE00E94D80382
:1055D00061E080E10E94D80361E081E10E94D8038C
:1055E00061E082E10E94D80361E083E10E94D80378
:1055F00080910D0581112AC01092F5041092F404D7
:1056000088EE93E0A0E0B0E08093F6049093F70476
:10561000A093F804B093F9048AE491E09093F30422
:105620008093F2048BE891E090930105809300054C
:1056300010920205109203051092040510920505C0
:1056400084E080930A0581E080930D058FEA94E061
:105650009093AE048093AD0480911505882309F4DE
:105660005BC180E591E00E941E0246E050E060E0F0
:1056700071E089E090E00E9411058BE891E09A8347
:1056800089831B821C821D821E8244E050E0BE0181
:105690006D5F7F4F8FE090E00E9411051092D10462
:1056A0001092D2041092D3041092D4041092D50414
:1056B0001092D6041092D7041092D8041092D904F4
:1056C0001092DA041092DB041092DC0480E69AEE69
:1056D000A0E0B0E08093E5049093E604A093E70493
:1056E000B093E80480EA9FE0A0E0B0E08093E90492
:1056F0009093EA04A093EB04B093EC04EDEBF4E098
:1057000084E1DF011D928A95E9F786E0E0E0F1E0AF
:10571000A7EBB4E001900D928A95E1F71092F104A5
:105720000E9424302FEC37E040E050E00E94F93333
:10573000DC01CB010196A11DB11D8093B3049093B0
:10574000B404A093B504B093B6048093AF049093CF
:10575000B004A093B104B093B20482EF94E00E942D
:10576000600A64E470E082EF94E00E94810D882377
:1057700009F4D6C00E94CF046B017C01A8EE4A2E2A
:10578000A3E05A2E612C712CB3E09B2E02E0B12CC9
:10579000A12C8091F104833009F440C08111D8C05C
:1057A0008091B3049091B404A091B504B091B60473
:1057B0000196A11DB11D8093B3049093B404A093EE
:1057C000B504B093B6040E94CF046C197D098E090C
:1057D0009F09A30192010E946234A90161E08FEA4E
:1057E00094E00E948C1681E08093F10491E0A91668
:1057F000B10479F20E94CF046C197D098E099F09CA
:105800002091E5043091E6044091E7045091E804CA
:10581000261737074807590708F0B9CF82EF94E0F9
:105820000E94600A8091B3049091B404A091B504E1
:10583000B091B6040196A11DB11D8093B30490935D
:10584000B404A093B504B093B6040E94CF0460934F
:10585000ED047093EE048093EF049093F004AA9407
:10586000AB2809F05DC080E591E00E941E02009126
:10587000AD041091AE04B801625F7F4FCE01019676
:105880000E946E1244E050E0BE016D5F7F4F8FE0DA
:1058900090E00E941105B8016A5E7F4FCE0101962B
:1058A0000E946E1244E050E0BE016D5F7F4F81E0C8
:1058B00090E00E941105B8016E5E7F4FCE01019607
:1058C0000E946E1244E050E0BE016D5F7F4F85E0A4
:1058D00090E00E941105B801625E7F4FCE010196F3
:1058E0000E946E128B819C81AD81BE818093F805F0
:1058F0009093F905A093FA05B093FB050E94090463
:105900007F73809106019091070168277927709332
:1059100007016093060104C00E940D098111A1CE08
:10592000E0913A05E353E53030F4F0E0E059FE4F02
:10593000808181110EC165E174E08BE395E00E94E6
:10594000E40761E070E080E090E00E949D04F9CF00
:10595000843031F58091B3049091B404A091B504E2
:10596000B091B6040196A11DB11D8093B30490932C
:10597000B404A093B504B093B6040E94CF046C198C
:105980007D098E099F09A30192010E946234A90139
:1059900063E08FEA94E00E948C160093F10426CF16
:1059A000813091F54091E9045091EA046091EB0453
:1059B0007091EC049E012F5F3F4F8FEA94E00E94AC
:1059C0004827182F823009F0C1C089819A81AB81A4
:1059D000BC818093B3049093B404A093B504B093B6
:1059E000B6040E94CF046C197D098E099F09A3019A
:1059F00092010E946234A90163E08FEA94E00E9460
:105A00008C161093F104F2CE823009F0EFCE409163
:105A1000E9045091EA046091EB047091EC049E015A
:105A20002F5F3F4F8FEA94E00E944827182F853060
:105A300009F087C09092F1048091D1049091D20432
:105A4000A091D304B091D404892B8A2B8B2B61F4C1
:105A500084E893E0A0E0B0E08093D1049093D20476
:105A6000A093D304B093D4048091D5049091D6042C
:105A7000A091D704B091D804892B8A2B8B2BA1F449
:105A80008091D1049091D204A091D304B091D40418
:105A9000B695A795979587958093D5049093D6044E
:105AA000A093D704B093D8048091D9049091DA04DC
:105AB000A091DB04B091DC04892B8A2B8B2BE9F4B9
:105AC0008091D1049091D204A091D304B091D404D8
:105AD000AC01BD01E3E07695679557954795EA954A
